:100000000C9434000C943E000C943E000C943E0082
:100010000C943E000C943E000C943E000C943E0068
:100020000C943E000C943E000C943E000C943E0058
:100030000C943E000C943E000C943E000C943E0048
:100040000C943E000C943E000C943E000C943E0038
:100050000C943E000C943E000C943E000C943E0028
:100060000C943E000C943E0011241FBECFEFD8E04C
:10007000DEBFCDBF0E9440000C94C7010C9400006D
:10008000CF93DF93CDB7DEB769970FB6F894DEBF95
:100090000FBECDBF19821B821A821D821C821F8255
:1000A0001E82198618861B861A861C861E861D8649
:1000B000188A1F861A8A198A1C8A1B8A1E8A1D8A18
:1000C0001F8A8F859889892B61F489899A891816E6
:1000D000190614F48C8501C080E0811104C081E010
:1000E00003C080E001C080E081110EC029893A89F7
:1000F000121613062CF49C85911103C0982F01C091
:10010000982F911101C081E08823D1F0E0E0F0E068
:1001100081E090E091838083A2E0B0E00B2EAC936D
:1001200011960C92198E188E1E861D8680819181E3
:100130009A8B898B8A8D9B8D95958795988B8F87C8
:100140008C819D811816190664F48E819F81181682
:10015000190614F4898101C080E0811104C081E096
:1001600003C080E001C080E0882321F01D821C8252
:100170001B821A8286B1807190E0181619060CF065
:10018000FCC02F892111F9C081E08F8BE989FA89A0
:100190001E161F061CF48C858111282F211197C073
:1001A00081E0309B80E061E0319B60E04A855B85C7
:1001B00090E0042E02C0880F991F0A94E2F7A885E8
:1001C000B9858A2B9B2BDA01119670E002C0660F6D
:1001D000771FAA95E2F7862B972B998788874E5F22
:1001E0005F4F5B874A87483051050CF46ACF198608
:1001F00018861B861A864E815F8141155105E1F4F0
:1002000018161906CCF41E161F062CF43C85311165
:1002100003C0322F01C0322F31110EC01416150643
:100220002CF42981211103C0232F01C0232F211178
:1002300002C021E001C0232F222339F021E02983CD
:100240009F838E839D838C833CCF1E161F06DCF418
:100250000097C9F4141615062CF43981311103C026
:10026000322F01C0322F31110EC01E161F062CF482
:100270002C85211103C0232F01C0232F211102C07F
:1002800021E001C0232F222319F081E08C8719CFB0
:10029000141615061CF439813111232F222309F479
:1002A00010CF2A813B81EC81FD81E41BF50BEE0F21
:1002B000FF1FE20FF31F918380838E819F8101973F
:1002C0009F838E83892B09F0FCCE1982FACE8D890B
:1002D0009E8918161906A4F02D853E858F8598896C
:1002E000AC014E1B5F0BFA01EE0FFF1FE20FF31F75
:1002F000808191819C8B8B8B87E090E09E8B8D8B96
:100300008B899C892D893E89AC01022E02C05595AE
:1003100047950A94E2F72150310902C095958795D7
:100320002A95E2F78170992728B12B7F40FF02C000
:1003300034E001C030E0232B28B928B1277F892B76
:1003400011F098E001C090E0822F892B88B98D8947
:100350009E8902979E8B8D8B181619062CF0898921
:100360009A8901979A8B898B89899A89892B09F0B7
:10037000A8CE1C86188A1F86A4CE2F89222309F4B2
:10038000A0CE181619060CF49CCE1F8A9ACEF894AB
:02039000FFCF9D
:00000001FF
