S00B00006F75742E73726563C1
S11300000C9434000C943E000C943E000C943E007E
S11300100C943E000C943E000C943E000C943E0064
S11300200C943E000C943E000C943E000C943E0054
S11300300C943E000C943E000C943E000C943E0044
S11300400C943E000C943E000C943E000C943E0034
S11300500C943E000C943E000C943E000C943E0024
S11300600C943E000C943E0011241FBECFEFD8E048
S1130070DEBFCDBF0E946A030C9492030C9400006F
S1130080CF93DF93CDB7DEB7CE50D2400FB6F894FE
S1130090DEBF0FBECDBF8C018FEF8AB984B9FE01DC
S11300A03296DF01282F1D922A95E9F7EB5FFE4F68
S11300B0DF011D928A95E9F71982CE5FDE4F18821F
S11300C0C250D140CD5FDE4F1882C350D140CC5FC7
S11300D0DE4F1882C450D140CB5FDE4F1882C5502A
S11300E0D140CA5FDE4F1882C650D140C95FDD4F90
S11300F01882C750D240C85FDD4F1882C850D24022
S113010088E0C75FDD4F8883C950D240C65FDD4FAA
S11301101882CA50D240C45FDD4F1882CC50D240FE
S113012083E087B980E090E00E947803F80180833F
S1130130CF5FDE4F8881C150D140181674F4CE5F72
S1130140DE4F9881C250D140191614F4998101C030
S113015090E0911104C091E003C090E001C090E0F0
S1130160992321F0082E000C990B02C080E090E046
S113017018160CF0ECC0CF5FDE4F1882C150D1408E
S11301809A81D8012C91921372C011962D913C91B1
S113019012972838334109F06AC0813009F060C0F1
S11301A0C35FDD4F19821882CD50D24088B1C35F3E
S11301B0DD4F8883CD50D24088B1C25FDD4F888344
S11301C0CE50D240C65FDE4F1882CA50D14082E082
S11301D0C95FDE4F8883C750D14080E08230B4F4D9
S11301E0282F082E000C330BF9013196ADE0B2E054
S11301F0AC0FBD1FA20FB31F9C9127E031E02C0F61
S11302003D1FE20FF31F90838F5FE8CF82E0C95F49
S1130210DD4F8883C750D240CA5FDD4F8883C65004
S1130220D240C85FDD4F1882C850D24088E0C75F13
S1130230DD4F8883C950D240CA5FDE4F8881C650E3
S1130240D140811102C081E001C080E0882309F41B
S11302507EC081E0CB5FDE4F8883C550D14077C03C
S1130260833009F074C09BB98B8185B970C091113A
S11302706EC0D80111962D913C91129728383341C4
S11302800CF065C0823009F062C06B8180E090E0C0
S11302900E94800380E090E00E947803F80180834C
S11302A0C35FDD4F19821882CD50D240C25FDD4F4B
S11302B08883CE50D240C65FDE4F1882CA50D140E8
S11302C082E0C95FDE4F8883C750D14080E082302E
S11302D0B4F4282F082E000C330BF9013196ADE04D
S11302E0B2E0AC0FBD1FA20FB31F9C9127E031E019
S11302F02C0F3D1FE20FF31F90838F5FE8CF82E046
S1130300C95FDD4F8883C750D240CA5FDD4F888301
S1130310C650D240C85FDD4F1882C850D24088E032
S1130320C75FDD4F8883C950D240CA5FDE4F8881E2
S1130330C650D140811102C081E001C080E0882311
S113034031F081E0CB5FDE4F8883C550D140D801C6
S113035011968D919C9112978838B3E19B0724F4F0
S11303600196F8019283818386B1807290E0C45F24
S1130370DD4F2881CC50D240211109C0181619062E
S113038034F021E0C45FDD4F2883CC50D2401816EE
S113039019060CF0CDCEC45FDD4F2881CC50D2407D
S11303A0222309F4C5CE86B1807190E0181619068F
S11303B00CF069C1C65FDD4F3881CA50D24031119B
S11303C062C181E0C65FDD4F8883CA50D240C95FF5
S11303D0DD4F7881C750D24077234CF0CA5FDE4F9F
S11303E06881C650D140611103C0632F01C0632FDF
S11303F06111A7C041E0329B40E091E0339B90E063
S1130400CC5FDE4F3881C450D140E32F032E000C63
S1130410FF0B50E0032E02C0440F551F0A94E2F76D
S1130420CD5FDE4F8881C350D140482B3196892F50
S113043090E002C0880F991FEA95E2F7842BCD5F04
S1130440DE4F8883C350D1403E5FCC5FDE4F38839C
S1130450C450D14038300CF46BCECD5FDE4F1882DF
S1130460C350D140CC5FDE4F1882C450D140CE5F20
S1130470DE4F9881C250D14091111DC01816DCF492
S113048077234CF0CA5FDE4F3881C650D14031111A
S113049003C0362F01C0362F31110DC019162CF4AC
S11304A04981411103C0432F01C0432F411102C0B0
S11304B0622F01C0632F6623B1F091E09983CE5F70
S11304C0DE4F8883C250D140E2E0F0E0EC0FFD1F24
S11304D0E80FF11D87FDFA951082CF5FDE4F888308
S11304E0C150D14025CE19162CF42981211103C005
S11304F0262F01C0262F222319F019160CF4622F7F
S1130500662309F415CECF5FDE4FE881C150D14098
S11305100E2E000CFF0BE91BF10997FDF39522E069
S113052030E02C0F3D1FE20FF31F80839150CE5F0C
S1130530DE4F9883C250D14019160CF4F9CD1982BC
S1130540F7CDCE5FDE4F8881C250D14018162CF40F
S11305508981811103C0832F01C0832F811103C0BE
S113056077230CF0362F332309F4E2CD88B18E7F44
S113057088B988B18D7F88B9C75FDD4F8881C9503C
S1130580D240883014F1CA5FDD4FE881C650D240B2
S1130590C95FDD4F8881C750D2400E2E000CFF0B7F
S11305A0E81BF10987FDF39567E071E06C0F7D1F8F
S11305B0E60FF71F8081C85FDD4F8883C850D240A3
S11305C0C75FDD4F1882C950D240C85FDD4F8881B4
S11305D0C850D240082E000C990BC75FDD4F4881EC
S11305E0C950D240242F042E000C330BDC0102C06E
S11305F0B595A7954A95E2F72F5F3F4F02C09595B1
S113060087952A95E2F78170992728B12E7FA0FF5C
S113061002C031E001C030E0232B28B928B12D7F7E
S1130620892B11F092E001C090E0822F892B88B9C8
S1130630C75FDD4F8881C950D2408E5FC75FDD4FF1
S11306408883C950D24088305CF0C95FDD4F88810F
S1130650C750D2408150C95FDD4F8883C750D24014
S1130660C95FDD4F8881C750D24088230CF060CD2C
S1130670CA5FDE4F1882C650D140CA5FDD4F188270
S1130680C650D24055CDC65FDD4F2881CA50D240F6
S1130690222309F44DCD181619060CF449CDCB5F6D
S11306A0DE4F8881C550D140882371F08981811142
S11306B00BC081E0CA5FDE4F8883C650D140CB5F58
S11306C0DE4F1882C550D140C65FDD4F1882CA5034
S11306D0D2402ECDCF93DF9300D01F92CDB7DEB79B
S11306E081E089831B821A82CE0101960E94400018
S11306F0F999FECF92BD81BDF89A992780B50895E6
S1130700262FF999FECF92BD81BDF89A019700B4C6
S1130710021639F01FBA20BD0FB6F894FA9AF99A66
S10B07200FBE0895F894FFCF09
S9030000FC
