S00B00006F75742E73726563C1
S11300000C9434000C943E000C943E000C943E007E
S11300100C943E000C943E000C943E000C943E0064
S11300200C943E000C943E000C943E000C943E0054
S11300300C943E000C943E000C943E000C943E0044
S11300400C943E000C943E000C943E000C943E0034
S11300500C943E000C943E000C943E000C943E0024
S11300600C943E000C943E0011241FBECFEFD8E048
S1130070DEBFCDBF0E9436030C9444030C940000F1
S1130080CF93DF93CDB7DEB7CD50D2400FB6F894FF
S1130090DEBF0FBECDBFFC018FEF8AB984B99E01CC
S11300A02E5F3F4FD901482F1D924A95E9F72C5FE7
S11300B03E4FD9011D928A95E9F71982CE5FDE4F32
S11300C01882C250D140CD5FDE4F1882C350D14058
S11300D0CC5FDE4F1882C450D140CB5FDE4F188214
S11300E0C550D140CA5FDD4F1882C650D240C95FA7
S11300F0DD4F1882C750D240C85FDD4F1882C85008
S1130100D240C75FDD4F1882C950D240C55FDD4F72
S11301101882CB50D24083E087B9CF5FDE4F28816D
S1130120C150D140121674F4CE5FDE4F8881C250A4
S1130130D140181614F4898101C080E0811104C0F3
S113014081E003C080E001C080E0882321F0022E1A
S1130150000C330B02C020E030E012160CF0EDC0AE
S1130160CF5FDE4F1882C150D1408A8190818913BC
S113017076C0418152814838534109F070C0213022
S113018009F066C0C45FDD4F19821882CC50D2409A
S113019088B1C45FDD4F8883CC50D24088B1C35F3F
S11301A0DD4F8883CD50D24080E08230C4F4282FC4
S11301B0082E000C330BB9016F5F7F4F4CE052E007
S11301C04C0F5D1F240F351FD9019C91A6E0B1E0AF
S11301D0AC0FBD1FA60FB71F9C938F5FE6CF82E0C5
S11301E0CA5FDE4F8883C650D14083E0CA5FDD4FCB
S11301F08883C650D240CB5FDD4F8883C550D24040
S1130200CE5FDE4F8881C250D140181614F4898124
S113021001C080E0811111C093E019164CF4CB5F4A
S1130220DE4F9881C550D140911103C0982F01C071
S1130230982F911103C081E001C080E0882309F464
S11302407CC081E0CB5FDE4F8883C550D14075C050
S1130250233009F072C08BB98B8185B96EC08111CE
S11302606CC081819281883893410CF066C08B8187
S113027085B98B8188B9223009F05FC08B81808376
S1130280C45FDD4F19821882CC50D240C35FDD4F6A
S11302908883CD50D24020E02230C4F4822F022E35
S11302A0000C990BBC016F5F7F4F4CE052E04C0F88
S11302B05D1F840F951FDC018C91A6E0B1E0AC0FAB
S11302C0BD1FA60FB71F8C932F5FE6CF82E0CA5FD6
S11302D0DE4F8883C650D14083E0CA5FDD4F8883F8
S11302E0C650D240CB5FDD4F8883C550D240CE5F2D
S11302F0DE4F8881C250D140181614F4898101C0A0
S113030080E0811111C093E019164CF4CB5FDE4FED
S11303109881C550D140911103C0982F01C0982FE6
S1130320911103C081E001C080E0882331F081E0B5
S1130330CB5FDE4F8883C550D1402181328128387C
S1130340B3E13B0724F42F5F3F4F3283218326B16F
S1130350207230E0C55FDD4F8881CB50D2408111DF
S113036009C01216130634F081E0C55FDD4F88839F
S1130370CB50D240121613060CF0CFCEC55FDD4F22
S11303808881CB50D240882309F4C7CE26B120718E
S113039030E0121613060CF057C1C75FDD4F988189
S11303A0C950D240911150C121E0C75FDD4F28836D
S11303B0C950D240CA5FDD4F2881C650D2401216C0
S11303C04CF4CB5FDE4F5881C550D140511103C06E
S11303D0592F01C0592F5111A9C098B19E7F98B9C6
S11303E098B19D7F98B921E0329B20E091E0339B46
S11303F090E0CC5FDE4F6881C450D140A62F062E1A
S1130400000CBB0B30E0062E02C0220F331F0A94EF
S1130410E2F7CD5FDE4F4881C350D140422B1196A5
S1130420292F30E002C0220F331FAA95E2F7242BB4
S1130430CD5FDE4F2883C350D1406E5FCC5FDE4F6B
S11304406883C450D14068300CF467CECD5FDE4F72
S11304501882C350D140CC5FDE4F1882C450D140C3
S1130460CE5FDE4F9881C250D140911122C0121646
S113047004F5CA5FDD4F3881C650D24013164CF4E0
S1130480CB5FDE4F3881C550D140311103C0352FC9
S113049001C0352F31110DC019162CF449814111B9
S11304A003C0432F01C0432F411102C0582F01C084
S11304B0532F5523B1F081E08983CE5FDE4F28832B
S11304C0C250D140A2E0B0E0AC0FBD1FA20FB11DDD
S11304D027FDBA951C92CF5FDE4F2883C150D140CF
S11304E01CCE19161CF489818111582F552309F447
S11304F014CECF5FDE4FA881C150D1400A2E000C2C
S1130500BB0BA91BB10997FDB39542E050E04C0F1A
S11305105D1FA40FB51F2C939150CE5FDE4F9883BF
S1130520C250D1409111F9CD1982F7CDCE5FDE4F83
S11305308881C250D14018161CF489818111982FEA
S11305409111EBCDC85FDD4F8881C850D240181699
S1130550F4F0CB5FDD4FA881C550D2400A2E000CC9
S1130560BB0BA21BB10927FDB39566E071E06C0FCC
S11305707D1FA60FB71F8C91C95FDD4F8883C750BD
S1130580D24087E0C85FDD4F8883C850D240C95F3E
S1130590DD4F8881C750D240082E000C990BC85FEC
S11305A0DD4F4881C850D240242F042E000C330B59
S11305B0DC0102C0B595A7954A95E2F721503109AF
S11305C002C0959587952A95E2F78170992728B1FD
S11305D02E7FA0FF02C031E001C030E0232B28B9F8
S11305E028B12D7F892B11F092E001C090E0822F79
S11305F0892B88B9C85FDD4F8881C850D2408250AA
S1130600C85FDD4F8883C850D24018165CF0CA5FBB
S1130610DD4F8881C650D2408150CA5FDD4F888348
S1130620C650D240CA5FDD4F8881C650D240811186
S113063074CDCB5FDE4F1882C550D140CB5FDD4F08
S11306401882C550D24069CDC75FDD4F8881C9503B
S1130650D240882309F461CD121613060CF45DCD43
S1130660C75FDD4F1882C950D24057CDCF93DF9377
S113067000D01F92CDB7DEB781E089831B821A8236
S10F0680CE0101960E944000F894FFCFC8
S9030000FC
