S00B00006F75742E73726563C1
S11300000C9434000C943E000C943E000C943E007E
S11300100C943E000C943E000C943E000C943E0064
S11300200C943E000C943E000C943E000C943E0054
S11300300C943E000C943E000C943E000C943E0044
S11300400C943E000C943E000C943E000C943E0034
S11300500C943E000C943E000C943E000C943E0024
S11300600C943E000C943E0011241FBECFEFD8E048
S1130070DEBFCDBF0E9457030C9465030C940000AF
S1130080CF93DF93CDB7DEB7CE50D2400FB6F894FE
S1130090DEBF0FBECDBFFC018FEF8AB984B99E01CC
S11300A02E5F3F4FD901482F1D924A95E9F72B5FE8
S11300B03E4FD9011D928A95E9F71982CE5FDE4F32
S11300C01882C250D140CD5FDE4F1882C350D14058
S11300D0CC5FDE4F1882C450D140CB5FDE4F188214
S11300E0C550D140CA5FDE4F1882C650D140C95FA7
S11300F0DD4F1882C750D240C85FDD4F1882C85008
S1130100D24088E0C75FDD4F8883C950D240C65FC4
S1130110DD4F1882CA50D240C45FDD4F1882CC50E4
S1130120D24083E087B9CF5FDE4F2881C150D140F0
S1130130121674F4CE5FDE4F8881C250D140181677
S113014014F4898101C080E0811104C081E003C0FE
S113015080E001C080E0882321F0022E000C330BE4
S113016002C020E030E012160CF0E1C0CF5FDE4F99
S11301701882C150D1408A819081891372C0418113
S113018052814838534109F06CC0213009F062C0F3
S1130190C35FDD4F19821882CD50D24088B1C35F4E
S11301A0DD4F8883CD50D24088B1C25FDD4F888354
S11301B0CE50D240C65FDE4F1882CA50D14082E092
S11301C0C95FDE4F8883C750D14080E08230C4F4D9
S11301D0282F082E000C330BB9016F5F7F4F4DE0C1
S11301E052E04C0F5D1F240F351FD9019C91A7E0ED
S11301F0B1E0AC0FBD1FA60FB71F9C938F5FE6CF76
S113020082E0C95FDD4F8883C750D240CA5FDD4FAB
S11302108883C650D240C85FDD4F1882C850D24090
S113022088E0C75FDD4F8883C950D240CA5FDE4F84
S11302308881C650D140811102C081E001C080E0B4
S1130240882309F474C081E0CB5FDE4F8883C550F6
S1130250D1406DC0233009F06AC08BB98B8185B958
S113026066C0811164C081819281883893410CF009
S11302705EC0223009F05BC08B818083C35FDD4F99
S113028019821882CD50D240C25FDD4F8883CE5090
S1130290D240C65FDE4F1882CA50D14082E0C95FA7
S11302A0DE4F8883C750D14020E02230C4F4822F2F
S11302B0022E000C990BBC016F5F7F4F4DE052E0A2
S11302C04C0F5D1F840F951FDC018C91A7E0B1E0FA
S11302D0AC0FBD1FA60FB71F8C932F5FE6CF82E034
S11302E0C95FDD4F8883C750D240CA5FDD4F888322
S11302F0C650D240C85FDD4F1882C850D24088E053
S1130300C75FDD4F8883C950D240CA5FDE4F888102
S1130310C650D140811102C081E001C080E0882331
S113032031F081E0CB5FDE4F8883C550D14021811D
S113033032812838B3E13B0724F42F5F3F4F3283E7
S1130340218326B1207230E0C45FDD4F8881CC5018
S1130350D240811109C01216130634F081E0C45F43
S1130360DD4F8883CC50D240121613060CF0DBCE3E
S1130370C45FDD4F8881CC50D240882309F4D3CEAA
S113038026B1207130E0121613060CF069C1C65F65
S1130390DD4F9881CA50D240911162C121E0C65FFD
S11303A0DD4F2883CA50D240C95FDD4F7881C750E2
S11303B0D24077234CF0CA5FDE4F5881C650D140FB
S11303C0511103C0592F01C0592F5111A7C021E069
S11303D0329B20E091E0339B90E0CC5FDE4F68815C
S11303E0C450D140A62F062E000CBB0B30E0062EC5
S11303F002C0220F331F0A94E2F7CD5FDE4F48811B
S1130400C350D140422B1196292F30E002C0220F55
S1130410331FAA95E2F7242BCD5FDE4F2883C35008
S1130420D1406E5FCC5FDE4F6883C450D1406830EA
S11304300CF479CECD5FDE4F1882C350D140CC5F2F
S1130440DE4F1882C450D140CE5FDE4F9881C25037
S1130450D14091111DC01216DCF477234CF0CA5F11
S1130460DE4F3881C650D140311103C0352F01C051
S1130470352F31110DC019162CF44981411103C0D7
S1130480432F01C0432F411102C0582F01C0532FE5
S11304905523B1F081E08983CE5FDE4F2883C250BB
S11304A0D140A2E0B0E0AC0FBD1FA20FB11D27FDEB
S11304B0BA951C92CF5FDE4F2883C150D14033CE12
S11304C019162CF48981811103C0852F01C0852F51
S11304D0882319F019160CF4582F552309F423CE48
S11304E0CF5FDE4FA881C150D1400A2E000CBB0B58
S11304F0A91BB10997FDB39542E050E04C0F5D1F75
S1130500A40FB51F2C939150CE5FDE4F9883C25039
S1130510D14019160CF407CE198205CECE5FDE4FFA
S11305208881C250D14018162CF48981811103C0EE
S1130530892F01C0892F811103C077230CF0952FD7
S1130540992309F4F0CD88B18E7F88B988B18D7F65
S113055088B9C75FDD4F8881C950D240883014F113
S1130560CA5FDD4FA881C650D240C95FDD4F888184
S1130570C750D2400A2E000CBB0BA81BB10987FD43
S1130580B39567E071E06C0F7D1FA60FB71F8C91C8
S1130590C85FDD4F8883C850D240C75FDD4F1882E3
S11305A0C950D240C85FDD4F8881C850D240082E60
S11305B0000C990BC75FDD4F4881C950D240242FEE
S11305C0042E000C330BDC0102C0B595A7954A95A7
S11305D0E2F72F5F3F4F02C0959587952A95E2F782
S11305E08170992728B12E7FA0FF02C031E001C09D
S11305F030E0232B28B928B12D7F892B11F092E00C
S113060001C090E0822F892B88B9C75FDD4F8881B4
S1130610C950D2408E5FC75FDD4F8883C950D24036
S113062088305CF0C95FDD4F8881C750D24081506B
S1130630C95FDD4F8883C750D240C95FDD4F8881D1
S1130640C750D24088230CF06ECDCA5FDE4F1882AB
S1130650C650D140CA5FDD4F1882C650D24063CD28
S1130660C65FDD4F8881CA50D240882309F45BCD30
S1130670121613060CF457CDCB5FDE4F8881C5509C
S1130680D140882371F0898181110BC081E0CA5F58
S1130690DE4F8883C650D140CB5FDE4F1882C550F1
S11306A0D140C65FDD4F1882CA50D2403CCDCF93B3
S11306B0DF9300D01F92CDB7DEB781E089831B8220
S11106C01A82CE0101960E944000F894FFCFEA
S9030000FC
